:1000000012C017C016C015C014C013C012C011C052
:1000100010C00FC00EC00DC00CC00BC00AC009C07C
:1000200008C007C006C011241FBECFEDCDBF33D01E
:1000300066C0E6CFDF93CF9300D0CDB7DEB7282FD1
:100040000EC01A82198205C089819A8101969A830D
:10005000898389819A81895C9140B1F7215022235B
:1000600081F70F900F90CF91DF910895969A959A0E
:1000700008959698959808959698959884EFDADF64
:10008000969A959A84EFD6DF9698959884EFD2DF6A
:10009000969A959A0895CF93DF938E9A8D9A8B981E
:1000A000939A969A959A80E090E00CC080E090E058
:1000B000839902C0E1DF02C0009739F44599F6CF79
:1000C00081E090E0C0E0D0E0F3CF8130910579F499
:1000D000459B03C080E090E008C027E2C131D20711
:1000E00024F09698959882E090E02196E1CF8230B6
:1000F0009105F1F6459BDCCF969A959AD7CFF89467
:02010000FFCF2F
:00000001FF
